{
  "contractName": "BondedToken",
  "abi": [
    {
      "constant": true,
      "inputs": [],
      "name": "name",
      "outputs": [
        {
          "name": "",
          "type": "string"
        }
      ],
      "payable": false,
      "stateMutability": "view",
      "type": "function"
    },
    {
      "constant": false,
      "inputs": [
        {
          "name": "_spender",
          "type": "address"
        },
        {
          "name": "_value",
          "type": "uint256"
        }
      ],
      "name": "approve",
      "outputs": [
        {
          "name": "",
          "type": "bool"
        }
      ],
      "payable": false,
      "stateMutability": "nonpayable",
      "type": "function"
    },
    {
      "constant": true,
      "inputs": [],
      "name": "reserveRatio",
      "outputs": [
        {
          "name": "",
          "type": "uint32"
        }
      ],
      "payable": false,
      "stateMutability": "view",
      "type": "function"
    },
    {
      "constant": true,
      "inputs": [],
      "name": "totalSupply",
      "outputs": [
        {
          "name": "",
          "type": "uint256"
        }
      ],
      "payable": false,
      "stateMutability": "view",
      "type": "function"
    },
    {
      "constant": false,
      "inputs": [
        {
          "name": "_from",
          "type": "address"
        },
        {
          "name": "_to",
          "type": "address"
        },
        {
          "name": "_value",
          "type": "uint256"
        }
      ],
      "name": "transferFrom",
      "outputs": [
        {
          "name": "",
          "type": "bool"
        }
      ],
      "payable": false,
      "stateMutability": "nonpayable",
      "type": "function"
    },
    {
      "constant": true,
      "inputs": [],
      "name": "virtualSupply",
      "outputs": [
        {
          "name": "",
          "type": "uint256"
        }
      ],
      "payable": false,
      "stateMutability": "view",
      "type": "function"
    },
    {
      "constant": true,
      "inputs": [
        {
          "name": "_supply",
          "type": "uint256"
        },
        {
          "name": "_connectorBalance",
          "type": "uint256"
        },
        {
          "name": "_connectorWeight",
          "type": "uint32"
        },
        {
          "name": "_depositAmount",
          "type": "uint256"
        }
      ],
      "name": "calculatePurchaseReturn",
      "outputs": [
        {
          "name": "",
          "type": "uint256"
        }
      ],
      "payable": false,
      "stateMutability": "view",
      "type": "function"
    },
    {
      "constant": true,
      "inputs": [],
      "name": "decimals",
      "outputs": [
        {
          "name": "",
          "type": "uint8"
        }
      ],
      "payable": false,
      "stateMutability": "view",
      "type": "function"
    },
    {
      "constant": true,
      "inputs": [
        {
          "name": "_supply",
          "type": "uint256"
        },
        {
          "name": "_connectorBalance",
          "type": "uint256"
        },
        {
          "name": "_connectorWeight",
          "type": "uint32"
        },
        {
          "name": "_sellAmount",
          "type": "uint256"
        }
      ],
      "name": "calculateSaleReturn",
      "outputs": [
        {
          "name": "",
          "type": "uint256"
        }
      ],
      "payable": false,
      "stateMutability": "view",
      "type": "function"
    },
    {
      "constant": true,
      "inputs": [],
      "name": "version",
      "outputs": [
        {
          "name": "",
          "type": "string"
        }
      ],
      "payable": false,
      "stateMutability": "view",
      "type": "function"
    },
    {
      "constant": true,
      "inputs": [
        {
          "name": "_fromConnectorBalance",
          "type": "uint256"
        },
        {
          "name": "_fromConnectorWeight",
          "type": "uint32"
        },
        {
          "name": "_toConnectorBalance",
          "type": "uint256"
        },
        {
          "name": "_toConnectorWeight",
          "type": "uint32"
        },
        {
          "name": "_amount",
          "type": "uint256"
        }
      ],
      "name": "calculateCrossConnectorReturn",
      "outputs": [
        {
          "name": "",
          "type": "uint256"
        }
      ],
      "payable": false,
      "stateMutability": "view",
      "type": "function"
    },
    {
      "constant": false,
      "inputs": [
        {
          "name": "_spender",
          "type": "address"
        },
        {
          "name": "_subtractedValue",
          "type": "uint256"
        }
      ],
      "name": "decreaseApproval",
      "outputs": [
        {
          "name": "",
          "type": "bool"
        }
      ],
      "payable": false,
      "stateMutability": "nonpayable",
      "type": "function"
    },
    {
      "constant": true,
      "inputs": [
        {
          "name": "_owner",
          "type": "address"
        }
      ],
      "name": "balanceOf",
      "outputs": [
        {
          "name": "",
          "type": "uint256"
        }
      ],
      "payable": false,
      "stateMutability": "view",
      "type": "function"
    },
    {
      "constant": true,
      "inputs": [],
      "name": "symbol",
      "outputs": [
        {
          "name": "",
          "type": "string"
        }
      ],
      "payable": false,
      "stateMutability": "view",
      "type": "function"
    },
    {
      "constant": true,
      "inputs": [],
      "name": "poolBalance",
      "outputs": [
        {
          "name": "",
          "type": "uint256"
        }
      ],
      "payable": false,
      "stateMutability": "view",
      "type": "function"
    },
    {
      "constant": false,
      "inputs": [
        {
          "name": "_to",
          "type": "address"
        },
        {
          "name": "_value",
          "type": "uint256"
        }
      ],
      "name": "transfer",
      "outputs": [
        {
          "name": "",
          "type": "bool"
        }
      ],
      "payable": false,
      "stateMutability": "nonpayable",
      "type": "function"
    },
    {
      "constant": false,
      "inputs": [
        {
          "name": "_spender",
          "type": "address"
        },
        {
          "name": "_addedValue",
          "type": "uint256"
        }
      ],
      "name": "increaseApproval",
      "outputs": [
        {
          "name": "",
          "type": "bool"
        }
      ],
      "payable": false,
      "stateMutability": "nonpayable",
      "type": "function"
    },
    {
      "constant": true,
      "inputs": [],
      "name": "virtualBalance",
      "outputs": [
        {
          "name": "",
          "type": "uint256"
        }
      ],
      "payable": false,
      "stateMutability": "view",
      "type": "function"
    },
    {
      "constant": true,
      "inputs": [
        {
          "name": "_owner",
          "type": "address"
        },
        {
          "name": "_spender",
          "type": "address"
        }
      ],
      "name": "allowance",
      "outputs": [
        {
          "name": "",
          "type": "uint256"
        }
      ],
      "payable": false,
      "stateMutability": "view",
      "type": "function"
    },
    {
      "inputs": [
        {
          "name": "_name",
          "type": "string"
        },
        {
          "name": "_symbol",
          "type": "string"
        },
        {
          "name": "_decimals",
          "type": "uint8"
        },
        {
          "name": "_reserveRatio",
          "type": "uint32"
        },
        {
          "name": "_virtualSupply",
          "type": "uint256"
        },
        {
          "name": "_virtualBalance",
          "type": "uint256"
        }
      ],
      "payable": false,
      "stateMutability": "nonpayable",
      "type": "constructor"
    },
    {
      "payable": true,
      "stateMutability": "payable",
      "type": "fallback"
    },
    {
      "anonymous": false,
      "inputs": [
        {
          "indexed": true,
          "name": "to",
          "type": "address"
        },
        {
          "indexed": false,
          "name": "amount",
          "type": "uint256"
        }
      ],
      "name": "Mint",
      "type": "event"
    },
    {
      "anonymous": false,
      "inputs": [
        {
          "indexed": true,
          "name": "burner",
          "type": "address"
        },
        {
          "indexed": false,
          "name": "amount",
          "type": "uint256"
        }
      ],
      "name": "Burn",
      "type": "event"
    },
    {
      "anonymous": false,
      "inputs": [
        {
          "indexed": true,
          "name": "to",
          "type": "address"
        },
        {
          "indexed": false,
          "name": "poolBalance",
          "type": "uint256"
        },
        {
          "indexed": false,
          "name": "tokenSupply",
          "type": "uint256"
        },
        {
          "indexed": false,
          "name": "amountTokens",
          "type": "uint256"
        },
        {
          "indexed": false,
          "name": "totalCostEth",
          "type": "uint256"
        }
      ],
      "name": "Buy",
      "type": "event"
    },
    {
      "anonymous": false,
      "inputs": [
        {
          "indexed": true,
          "name": "from",
          "type": "address"
        },
        {
          "indexed": false,
          "name": "poolBalance",
          "type": "uint256"
        },
        {
          "indexed": false,
          "name": "tokenSupply",
          "type": "uint256"
        },
        {
          "indexed": false,
          "name": "amountTokens",
          "type": "uint256"
        },
        {
          "indexed": false,
          "name": "returnedEth",
          "type": "uint256"
        }
      ],
      "name": "Sell",
      "type": "event"
    },
    {
      "anonymous": false,
      "inputs": [
        {
          "indexed": true,
          "name": "owner",
          "type": "address"
        },
        {
          "indexed": true,
          "name": "spender",
          "type": "address"
        },
        {
          "indexed": false,
          "name": "value",
          "type": "uint256"
        }
      ],
      "name": "Approval",
      "type": "event"
    },
    {
      "anonymous": false,
      "inputs": [
        {
          "indexed": true,
          "name": "from",
          "type": "address"
        },
        {
          "indexed": true,
          "name": "to",
          "type": "address"
        },
        {
          "indexed": false,
          "name": "value",
          "type": "uint256"
        }
      ],
      "name": "Transfer",
      "type": "event"
    },
    {
      "constant": true,
      "inputs": [
        {
          "name": "totalSupply",
          "type": "uint256"
        },
        {
          "name": "poolBalance",
          "type": "uint256"
        },
        {
          "name": "buyValue",
          "type": "uint256"
        }
      ],
      "name": "getBuy",
      "outputs": [
        {
          "name": "",
          "type": "uint256"
        }
      ],
      "payable": false,
      "stateMutability": "view",
      "type": "function"
    },
    {
      "constant": true,
      "inputs": [
        {
          "name": "totalSupply",
          "type": "uint256"
        },
        {
          "name": "poolBalance",
          "type": "uint256"
        },
        {
          "name": "sellAmount",
          "type": "uint256"
        }
      ],
      "name": "getSell",
      "outputs": [
        {
          "name": "",
          "type": "uint256"
        }
      ],
      "payable": false,
      "stateMutability": "view",
      "type": "function"
    },
    {
      "constant": false,
      "inputs": [
        {
          "name": "sender",
          "type": "address"
        }
      ],
      "name": "buy",
      "outputs": [
        {
          "name": "",
          "type": "bool"
        }
      ],
      "payable": true,
      "stateMutability": "payable",
      "type": "function"
    },
    {
      "constant": false,
      "inputs": [
        {
          "name": "sellAmount",
          "type": "uint256"
        }
      ],
      "name": "sell",
      "outputs": [
        {
          "name": "",
          "type": "bool"
        }
      ],
      "payable": false,
      "stateMutability": "nonpayable",
      "type": "function"
    }
  ],
  "bytecode": "0x60806040526040805190810160405280600381526020017f302e330000000000000000000000000000000000000000000000000000000000815250600390805190602001906200005192919062001031565b503480156200005f57600080fd5b506040516200445838038062004458833981018060405281019080805182019291906020018051820192919060200180519060200190929190805190602001909291908051906020019092919080519060200190929190505050701c35fedd14ffffffffffffffffffffffff60046020608081101515620000dc57fe5b0181905550701b0ce43b323fffffffffffffffffffffff600460216080811015156200010457fe5b01819055507019f0028ec1ffffffffffffffffffffffff600460226080811015156200012c57fe5b01819055507018ded91f0e7fffffffffffffffffffffff600460236080811015156200015457fe5b01819055507017d8ec7f0417ffffffffffffffffffffff600460246080811015156200017c57fe5b01819055507016ddc6556cdbffffffffffffffffffffff60046025608081101515620001a457fe5b01819055507015ecf52776a1ffffffffffffffffffffff60046026608081101515620001cc57fe5b01819055507015060c256cb2ffffffffffffffffffffff60046027608081101515620001f457fe5b0181905550701428a2f98d72ffffffffffffffffffffff600460286080811015156200021c57fe5b01819055507013545598e5c23fffffffffffffffffffff600460296080811015156200024457fe5b0181905550701288c4161ce1dfffffffffffffffffffff6004602a6080811015156200026c57fe5b01819055507011c592761c666fffffffffffffffffffff6004602b6080811015156200029457fe5b018190555070110a688680a757ffffffffffffffffffff6004602c608081101515620002bc57fe5b0181905550701056f1b5bedf77ffffffffffffffffffff6004602d608081101515620002e457fe5b0181905550700faadceceeff8bffffffffffffffffffff6004602e6080811015156200030c57fe5b0181905550700f05dc6b27edadffffffffffffffffffff6004602f6080811015156200033457fe5b0181905550700e67a5a25da4107fffffffffffffffffff600460306080811015156200035c57fe5b0181905550700dcff115b14eedffffffffffffffffffff600460316080811015156200038457fe5b0181905550700d3e7a392431239fffffffffffffffffff60046032608081101515620003ac57fe5b0181905550700cb2ff529eb71e4fffffffffffffffffff60046033608081101515620003d457fe5b0181905550700c2d415c3db974afffffffffffffffffff60046034608081101515620003fc57fe5b0181905550700bad03e7d883f69bffffffffffffffffff600460356080811015156200042457fe5b0181905550700b320d03b2c343d5ffffffffffffffffff600460366080811015156200044c57fe5b0181905550700abc25204e02828dffffffffffffffffff600460376080811015156200047457fe5b0181905550700a4b16f74ee4bb207fffffffffffffffff600460386080811015156200049c57fe5b01819055507009deaf736ac1f569ffffffffffffffffff60046039608081101515620004c457fe5b0181905550700976bd9952c7aa957fffffffffffffffff6004603a608081101515620004ec57fe5b01819055507009131271922eaa606fffffffffffffffff6004603b6080811015156200051457fe5b01819055507008b380f3558668c46fffffffffffffffff6004603c6080811015156200053c57fe5b0181905550700857ddf0117efa215bffffffffffffffff6004603d6080811015156200056457fe5b01819055507007ffffffffffffffffffffffffffffffff6004603e6080811015156200058c57fe5b01819055507007abbf6f6abb9d087fffffffffffffffff6004603f608081101515620005b457fe5b018190555070075af62cbac95f7dfa7fffffffffffffff60046040608081101515620005dc57fe5b018190555070070d7fb7452e187ac13fffffffffffffff600460416080811015156200060457fe5b01819055507006c3390ecc8af379295fffffffffffffff600460426080811015156200062c57fe5b018190555070067c00a3b07ffc01fd6fffffffffffffff600460436080811015156200065457fe5b0181905550700637b647c39cbb9d3d27ffffffffffffff600460446080811015156200067c57fe5b01819055507005f63b1fc104dbd39587ffffffffffffff60046045608081101515620006a457fe5b01819055507005b771955b36e12f7235ffffffffffffff60046046608081101515620006cc57fe5b018190555070057b3d49dda84556d6f6ffffffffffffff60046047608081101515620006f457fe5b018190555070054183095b2c8ececf30ffffffffffffff600460486080811015156200071c57fe5b018190555070050a28be635ca2b888f77fffffffffffff600460496080811015156200074457fe5b01819055507004d5156639708c9db33c3fffffffffffff6004604a6080811015156200076c57fe5b01819055507004a23105873875bd52dfdfffffffffffff6004604b6080811015156200079457fe5b0181905550700471649d87199aa990756fffffffffffff6004604c608081101515620007bc57fe5b01819055507004429a21a029d4c1457cfbffffffffffff6004604d608081101515620007e457fe5b0181905550700415bc6d6fb7dd71af2cb3ffffffffffff6004604e6080811015156200080c57fe5b01819055507003eab73b3bbfe282243ce1ffffffffffff6004604f6080811015156200083457fe5b01819055507003c1771ac9fb6b4c18e229ffffffffffff600460506080811015156200085c57fe5b0181905550700399e96897690418f785257fffffffffff600460516080811015156200088457fe5b0181905550700373fc456c53bb779bf0ea9fffffffffff60046052608081101515620008ac57fe5b018190555070034f9e8e490c48e67e6ab8bfffffffffff60046053608081101515620008d457fe5b018190555070032cbfd4a7adc790560b3337ffffffffff60046054608081101515620008fc57fe5b018190555070030b50570f6e5d2acca94613ffffffffff600460556080811015156200092457fe5b01819055507002eb40f9f620fda6b56c2861ffffffffff600460566080811015156200094c57fe5b01819055507002cc8340ecb0d0f520a6af58ffffffffff600460576080811015156200097457fe5b01819055507002af09481380a0a35cf1ba02ffffffffff600460586080811015156200099c57fe5b0181905550700292c5bdd3b92ec810287b1b3fffffffff60046059608081101515620009c457fe5b0181905550700277abdcdab07d5a77ac6d6b9fffffffff6004605a608081101515620009ec57fe5b018190555070025daf6654b1eaa55fd64df5efffffffff6004605b60808110151562000a1457fe5b0181905550700244c49c648baa98192dce88b7ffffffff6004605c60808110151562000a3c57fe5b018190555070022ce03cd5619a311b2471268bffffffff6004605d60808110151562000a6457fe5b0181905550700215f77c045fbe885654a44a0fffffffff6004605e60808110151562000a8c57fe5b01819055507001ffffffffffffffffffffffffffffffff6004605f60808110151562000ab457fe5b01819055507001eaefdbdaaee7421fc4d3ede5ffffffff6004606060808110151562000adc57fe5b01819055507001d6bd8b2eb257df7e8ca57b09bfffffff6004606160808110151562000b0457fe5b01819055507001c35fedd14b861eb0443f7f133fffffff6004606260808110151562000b2c57fe5b01819055507001b0ce43b322bcde4a56e8ada5afffffff6004606360808110151562000b5457fe5b018190555070019f0028ec1fff007f5a195a39dfffffff6004606460808110151562000b7c57fe5b018190555070018ded91f0e72ee74f49b15ba527ffffff6004606560808110151562000ba457fe5b018190555070017d8ec7f04136f4e5615fd41a63ffffff6004606660808110151562000bcc57fe5b018190555070016ddc6556cdb84bdc8d12d22e6fffffff6004606760808110151562000bf457fe5b018190555070015ecf52776a1155b5bd8395814f7fffff6004606860808110151562000c1c57fe5b018190555070015060c256cb23b3b3cc3754cf40ffffff6004606960808110151562000c4457fe5b01819055507001428a2f98d728ae223ddab715be3fffff6004606a60808110151562000c6c57fe5b018190555070013545598e5c23276ccf0ede68034fffff6004606b60808110151562000c9457fe5b01819055507001288c4161ce1d6f54b7f61081194fffff6004606c60808110151562000cbc57fe5b018190555070011c592761c666aa641d5a01a40f17ffff6004606d60808110151562000ce457fe5b0181905550700110a688680a7530515f3e6e6cfdcdffff6004606e60808110151562000d0c57fe5b01819055507001056f1b5bedf75c6bcb2ce8aed428ffff6004606f60808110151562000d3457fe5b01819055506ffaadceceeff8a0890f3875f008277fff6004607060808110151562000d5b57fe5b01819055506ff05dc6b27edad306388a600f6ba0bfff6004607160808110151562000d8257fe5b01819055506fe67a5a25da41063de1495d5b18cdbfff6004607260808110151562000da957fe5b01819055506fdcff115b14eedde6fc3aa5353f2e4fff6004607360808110151562000dd057fe5b01819055506fd3e7a3924312399f9aae2e0f868f8fff6004607460808110151562000df757fe5b01819055506fcb2ff529eb71e41582cccd5a1ee26fff6004607560808110151562000e1e57fe5b01819055506fc2d415c3db974ab32a51840c0b67edff6004607660808110151562000e4557fe5b01819055506fbad03e7d883f69ad5b0a186184e06bff6004607760808110151562000e6c57fe5b01819055506fb320d03b2c343d4829abd6075f0cc5ff6004607860808110151562000e9357fe5b01819055506fabc25204e02828d73c6e80bcdb1a95bf6004607960808110151562000eba57fe5b01819055506fa4b16f74ee4bb2040a1ec6c15fbbf2df6004607a60808110151562000ee157fe5b01819055506f9deaf736ac1f569deb1b5ae3f36c130f6004607b60808110151562000f0857fe5b01819055506f976bd9952c7aa957f5937d790ef650376004607c60808110151562000f2f57fe5b01819055506f9131271922eaa6064b73a22d0bd4f2bf6004607d60808110151562000f5657fe5b01819055506f8b380f3558668c46c91c49a2f8e967b96004607e60808110151562000f7d57fe5b01819055506f857ddf0117efa215952912839f6473e66004607f60808110151562000fa457fe5b0181905550856084908051906020019062000fc192919062001031565b50846085908051906020019062000fda92919062001031565b5083608660006101000a81548160ff021916908360ff16021790555082608660016101000a81548163ffffffff021916908363ffffffff1602179055508160878190555080608881905550505050505050620010e0565b828054600181600116156101000203166002900490600052602060002090601f016020900481019282601f106200107457805160ff1916838001178555620010a5565b82800160010185558215620010a5579182015b82811115620010a457825182559160200191906001019062001087565b5b509050620010b49190620010b8565b5090565b620010dd91905b80821115620010d9576000816000905550600101620010bf565b5090565b90565b61336880620010f06000396000f300608060405260043610610133576000357c0100000000000000000000000000000000000000000000000000000000900463ffffffff16806306fdde0314610135578063095ea7b3146101c55780630c7d5cd81461022a57806318160ddd1461026157806323b872dd1461028c578063277b2f971461031157806329a00e7c1461033c578063313ce567146103a157806349f9b0f7146103d257806354fd4d501461043757806365098bb3146104c7578063661884631461053c57806370a08231146105a15780637abc91a4146105f857806395d89b411461064d57806396365d44146106dd578063a9059cbb14610708578063d73dd6231461076d578063dcd2af17146107d2578063dd62ed3e146107fd578063e4849b3214610874578063e83b8caa146108b9578063f088d5471461090e575b005b34801561014157600080fd5b5061014a61095c565b6040518080602001828103825283818151815260200191508051906020019080838360005b8381101561018a57808201518184015260208101905061016f565b50505050905090810190601f1680156101b75780820380516001836020036101000a031916815260200191505b509250505060405180910390f35b3480156101d157600080fd5b50610210600480360381019080803573ffffffffffffffffffffffffffffffffffffffff169060200190929190803590602001909291905050506109fa565b604051808215151515815260200191505060405180910390f35b34801561023657600080fd5b5061023f610aec565b604051808263ffffffff1663ffffffff16815260200191505060405180910390f35b34801561026d57600080fd5b50610276610b02565b6040518082815260200191505060405180910390f35b34801561029857600080fd5b506102f7600480360381019080803573ffffffffffffffffffffffffffffffffffffffff169060200190929190803573ffffffffffffffffffffffffffffffffffffffff16906020019092919080359060200190929190505050610b0c565b604051808215151515815260200191505060405180910390f35b34801561031d57600080fd5b50610326610ec6565b6040518082815260200191505060405180910390f35b34801561034857600080fd5b5061038b6004803603810190808035906020019092919080359060200190929190803563ffffffff16906020019092919080359060200190929190505050610ecc565b6040518082815260200191505060405180910390f35b3480156103ad57600080fd5b506103b6610fab565b604051808260ff1660ff16815260200191505060405180910390f35b3480156103de57600080fd5b506104216004803603810190808035906020019092919080359060200190929190803563ffffffff16906020019092919080359060200190929190505050610fbe565b6040518082815260200191505060405180910390f35b34801561044357600080fd5b5061044c6110c2565b6040518080602001828103825283818151815260200191508051906020019080838360005b8381101561048c578082015181840152602081019050610471565b50505050905090810190601f1680156104b95780820380516001836020036101000a031916815260200191505b509250505060405180910390f35b3480156104d357600080fd5b5061052660048036038101908080359060200190929190803563ffffffff16906020019092919080359060200190929190803563ffffffff16906020019092919080359060200190929190505050611160565b6040518082815260200191505060405180910390f35b34801561054857600080fd5b50610587600480360381019080803573ffffffffffffffffffffffffffffffffffffffff1690602001909291908035906020019092919050505061126e565b604051808215151515815260200191505060405180910390f35b3480156105ad57600080fd5b506105e2600480360381019080803573ffffffffffffffffffffffffffffffffffffffff1690602001909291905050506114ff565b6040518082815260200191505060405180910390f35b34801561060457600080fd5b50610637600480360381019080803590602001909291908035906020019092919080359060200190929190505050611547565b6040518082815260200191505060405180910390f35b34801561065957600080fd5b50610662611586565b6040518080602001828103825283818151815260200191508051906020019080838360005b838110156106a2578082015181840152602081019050610687565b50505050905090810190601f1680156106cf5780820380516001836020036101000a031916815260200191505b509250505060405180910390f35b3480156106e957600080fd5b506106f2611624565b6040518082815260200191505060405180910390f35b34801561071457600080fd5b50610753600480360381019080803573ffffffffffffffffffffffffffffffffffffffff1690602001909291908035906020019092919050505061162a565b604051808215151515815260200191505060405180910390f35b34801561077957600080fd5b506107b8600480360381019080803573ffffffffffffffffffffffffffffffffffffffff16906020019092919080359060200190929190505050611849565b604051808215151515815260200191505060405180910390f35b3480156107de57600080fd5b506107e7611a45565b6040518082815260200191505060405180910390f35b34801561080957600080fd5b5061085e600480360381019080803573ffffffffffffffffffffffffffffffffffffffff169060200190929190803573ffffffffffffffffffffffffffffffffffffffff169060200190929190505050611a4b565b6040518082815260200191505060405180910390f35b34801561088057600080fd5b5061089f60048036038101908080359060200190929190505050611ad2565b604051808215151515815260200191505060405180910390f35b3480156108c557600080fd5b506108f8600480360381019080803590602001909291908035906020019092919080359060200190929190505050611c17565b6040518082815260200191505060405180910390f35b610942600480360381019080803573ffffffffffffffffffffffffffffffffffffffff169060200190929190505050611c56565b604051808215151515815260200191505060405180910390f35b60848054600181600116156101000203166002900480601f0160208091040260200160405190810160405280929190818152602001828054600181600116156101000203166002900480156109f25780601f106109c7576101008083540402835291602001916109f2565b820191906000526020600020905b8154815290600101906020018083116109d557829003601f168201915b505050505081565b600081600260003373ffffffffffffffffffffffffffffffffffffffff1673ffffffffffffffffffffffffffffffffffffffff16815260200190815260200160002060008573ffffffffffffffffffffffffffffffffffffffff1673ffffffffffffffffffffffffffffffffffffffff168152602001908152602001600020819055508273ffffffffffffffffffffffffffffffffffffffff163373ffffffffffffffffffffffffffffffffffffffff167f8c5be1e5ebec7d5bd14f71427d1e84f3dd0314c0f7b2291e5b200ac8c7c3b925846040518082815260200191505060405180910390a36001905092915050565b608660019054906101000a900463ffffffff1681565b6000600154905090565b60008073ffffffffffffffffffffffffffffffffffffffff168373ffffffffffffffffffffffffffffffffffffffff1614151515610b4957600080fd5b6000808573ffffffffffffffffffffffffffffffffffffffff1673ffffffffffffffffffffffffffffffffffffffff168152602001908152602001600020548211151515610b9657600080fd5b600260008573ffffffffffffffffffffffffffffffffffffffff1673ffffffffffffffffffffffffffffffffffffffff16815260200190815260200160002060003373ffffffffffffffffffffffffffffffffffffffff1673ffffffffffffffffffffffffffffffffffffffff168152602001908152602001600020548211151515610c2157600080fd5b610c72826000808773ffffffffffffffffffffffffffffffffffffffff1673ffffffffffffffffffffffffffffffffffffffff16815260200190815260200160002054611d7390919063ffffffff16565b6000808673ffffffffffffffffffffffffffffffffffffffff1673ffffffffffffffffffffffffffffffffffffffff16815260200190815260200160002081905550610d05826000808673ffffffffffffffffffffffffffffffffffffffff1673ffffffffffffffffffffffffffffffffffffffff16815260200190815260200160002054611d8c90919063ffffffff16565b6000808573ffffffffffffffffffffffffffffffffffffffff1673ffffffffffffffffffffffffffffffffffffffff16815260200190815260200160002081905550610dd682600260008773ffffffffffffffffffffffffffffffffffffffff1673ffffffffffffffffffffffffffffffffffffffff16815260200190815260200160002060003373ffffffffffffffffffffffffffffffffffffffff1673ffffffffffffffffffffffffffffffffffffffff16815260200190815260200160002054611d7390919063ffffffff16565b600260008673ffffffffffffffffffffffffffffffffffffffff1673ffffffffffffffffffffffffffffffffffffffff16815260200190815260200160002060003373ffffffffffffffffffffffffffffffffffffffff1673ffffffffffffffffffffffffffffffffffffffff168152602001908152602001600020819055508273ffffffffffffffffffffffffffffffffffffffff168473ffffffffffffffffffffffffffffffffffffffff167fddf252ad1be2c89b69c2b068fc378daa952ba7f163c4a11628f55a4df523b3ef846040518082815260200191505060405180910390a3600190509392505050565b60875481565b60008060008060008089118015610ee35750600088115b8015610ef5575060008763ffffffff16115b8015610f105750620f424063ffffffff168763ffffffff1611155b1515610f1b57600080fd5b6000861415610f2d5760009450610f9f565b620f424063ffffffff168763ffffffff161415610f605787610f4f8a88611da8565b811515610f5857fe5b049450610f9f565b610f6a8689611ddb565b9150610f7b828989620f4240611df9565b80945081955050508260ff16610f918a86611da8565b9060020a9004905088810394505b50505050949350505050565b608660009054906101000a900460ff1681565b60008060008060008060008a118015610fd75750600089115b8015610fe9575060008863ffffffff16115b80156110045750620f424063ffffffff168863ffffffff1611155b80156110105750898711155b151561101b57600080fd5b600087141561102d57600095506110b5565b8987141561103d578895506110b5565b620f424063ffffffff168863ffffffff161415611070578961105f8a89611da8565b81151561106857fe5b0495506110b5565b868a0392506110848a84620f42408b611df9565b80955081965050506110968986611da8565b91508360ff16899060020a029050848183038115156110b157fe5b0495505b5050505050949350505050565b60038054600181600116156101000203166002900480601f0160208091040260200160405190810160405280929190818152602001828054600181600116156101000203166002900480156111585780601f1061112d57610100808354040283529160200191611158565b820191906000526020600020905b81548152906001019060200180831161113b57829003601f168201915b505050505081565b60008060008060008060008b11801561117f575060008a63ffffffff16115b801561119a5750620f424063ffffffff168a63ffffffff1611155b80156111a65750600089115b80156111b8575060008863ffffffff16115b80156111d35750620f424063ffffffff168863ffffffff1611155b15156111de57600080fd5b8763ffffffff168a63ffffffff161415611217576111fc8b88611ddb565b6112068a89611da8565b81151561120f57fe5b049550611260565b6112218b88611ddb565b925061122f838c8c8b611df9565b80955081965050506112418986611da8565b91508360ff16899060020a0290508481830381151561125c57fe5b0495505b505050505095945050505050565b600080600260003373ffffffffffffffffffffffffffffffffffffffff1673ffffffffffffffffffffffffffffffffffffffff16815260200190815260200160002060008573ffffffffffffffffffffffffffffffffffffffff1673ffffffffffffffffffffffffffffffffffffffff1681526020019081526020016000205490508083111561137f576000600260003373ffffffffffffffffffffffffffffffffffffffff1673ffffffffffffffffffffffffffffffffffffffff16815260200190815260200160002060008673ffffffffffffffffffffffffffffffffffffffff1673ffffffffffffffffffffffffffffffffffffffff16815260200190815260200160002081905550611413565b6113928382611d7390919063ffffffff16565b600260003373ffffffffffffffffffffffffffffffffffffffff1673ffffffffffffffffffffffffffffffffffffffff16815260200190815260200160002060008673ffffffffffffffffffffffffffffffffffffffff1673ffffffffffffffffffffffffffffffffffffffff168152602001908152602001600020819055505b8373ffffffffffffffffffffffffffffffffffffffff163373ffffffffffffffffffffffffffffffffffffffff167f8c5be1e5ebec7d5bd14f71427d1e84f3dd0314c0f7b2291e5b200ac8c7c3b925600260003373ffffffffffffffffffffffffffffffffffffffff1673ffffffffffffffffffffffffffffffffffffffff16815260200190815260200160002060008873ffffffffffffffffffffffffffffffffffffffff1673ffffffffffffffffffffffffffffffffffffffff168152602001908152602001600020546040518082815260200191505060405180910390a3600191505092915050565b60008060008373ffffffffffffffffffffffffffffffffffffffff1673ffffffffffffffffffffffffffffffffffffffff168152602001908152602001600020549050919050565b600061157d61155885608754611ddb565b61156485608854611ddb565b608660019054906101000a900463ffffffff1685610fbe565b90509392505050565b60858054600181600116156101000203166002900480601f01602080910402602001604051908101604052809291908181526020018280546001816001161561010002031660029004801561161c5780601f106115f15761010080835404028352916020019161161c565b820191906000526020600020905b8154815290600101906020018083116115ff57829003601f168201915b505050505081565b60895481565b60008073ffffffffffffffffffffffffffffffffffffffff168373ffffffffffffffffffffffffffffffffffffffff161415151561166757600080fd5b6000803373ffffffffffffffffffffffffffffffffffffffff1673ffffffffffffffffffffffffffffffffffffffff1681526020019081526020016000205482111515156116b457600080fd5b611705826000803373ffffffffffffffffffffffffffffffffffffffff1673ffffffffffffffffffffffffffffffffffffffff16815260200190815260200160002054611d7390919063ffffffff16565b6000803373ffffffffffffffffffffffffffffffffffffffff1673ffffffffffffffffffffffffffffffffffffffff16815260200190815260200160002081905550611798826000808673ffffffffffffffffffffffffffffffffffffffff1673ffffffffffffffffffffffffffffffffffffffff16815260200190815260200160002054611d8c90919063ffffffff16565b6000808573ffffffffffffffffffffffffffffffffffffffff1673ffffffffffffffffffffffffffffffffffffffff168152602001908152602001600020819055508273ffffffffffffffffffffffffffffffffffffffff163373ffffffffffffffffffffffffffffffffffffffff167fddf252ad1be2c89b69c2b068fc378daa952ba7f163c4a11628f55a4df523b3ef846040518082815260200191505060405180910390a36001905092915050565b60006118da82600260003373ffffffffffffffffffffffffffffffffffffffff1673ffffffffffffffffffffffffffffffffffffffff16815260200190815260200160002060008673ffffffffffffffffffffffffffffffffffffffff1673ffffffffffffffffffffffffffffffffffffffff16815260200190815260200160002054611d8c90919063ffffffff16565b600260003373ffffffffffffffffffffffffffffffffffffffff1673ffffffffffffffffffffffffffffffffffffffff16815260200190815260200160002060008573ffffffffffffffffffffffffffffffffffffffff1673ffffffffffffffffffffffffffffffffffffffff168152602001908152602001600020819055508273ffffffffffffffffffffffffffffffffffffffff163373ffffffffffffffffffffffffffffffffffffffff167f8c5be1e5ebec7d5bd14f71427d1e84f3dd0314c0f7b2291e5b200ac8c7c3b925600260003373ffffffffffffffffffffffffffffffffffffffff1673ffffffffffffffffffffffffffffffffffffffff16815260200190815260200160002060008773ffffffffffffffffffffffffffffffffffffffff1673ffffffffffffffffffffffffffffffffffffffff168152602001908152602001600020546040518082815260200191505060405180910390a36001905092915050565b60885481565b6000600260008473ffffffffffffffffffffffffffffffffffffffff1673ffffffffffffffffffffffffffffffffffffffff16815260200190815260200160002060008373ffffffffffffffffffffffffffffffffffffffff1673ffffffffffffffffffffffffffffffffffffffff16815260200190815260200160002054905092915050565b600080600083111515611ae457600080fd5b82611aee336114ff565b10151515611afb57600080fd5b611b0a60015460895485611547565b9050600081111515611b1b57600080fd5b6089548111151515611b2c57600080fd5b611b363384611ef4565b1515611b4157600080fd5b611b5681608954611d7390919063ffffffff16565b6089819055503373ffffffffffffffffffffffffffffffffffffffff166108fc829081150290604051600060405180830381858888f19350505050158015611ba2573d6000803e3d6000fd5b503373ffffffffffffffffffffffffffffffffffffffff167f483f8aec0fd892ac72ad1ba8d0e9c9e73db59c12d263fd71de480b5b3deeae3c60895460015486856040518085815260200184815260200183815260200182815260200194505050505060405180910390a26001915050919050565b6000611c4d611c2885608754611ddb565b611c3485608854611ddb565b608660019054906101000a900463ffffffff1685610ecc565b90509392505050565b600080600034111515611c6857600080fd5b611c7760015460895434611c17565b9050600081111515611c8857600080fd5b611c928382611ffc565b1515611c9d57600080fd5b611cb234608954611d8c90919063ffffffff16565b6089819055503073ffffffffffffffffffffffffffffffffffffffff166108fc349081150290604051600060405180830381858888f19350505050158015611cfe573d6000803e3d6000fd5b508273ffffffffffffffffffffffffffffffffffffffff167f064fb1933e186be0b289a87e98518dc18cc9856ecbc9f1353d1a138ddf733ec560895460015484346040518085815260200184815260200183815260200182815260200194505050505060405180910390a26001915050919050565b6000828211151515611d8157fe5b818303905092915050565b60008183019050828110151515611d9f57fe5b80905092915050565b60008082840290506000841480611dc95750828482811515611dc657fe5b04145b1515611dd157fe5b8091505092915050565b6000808284019050838110151515611def57fe5b8091505092915050565b6000806000806000807002000000000000000000000000000000008a101515611e2157600080fd5b886f800000000000000000000000000000008b02811515611e3e57fe5b04925070015bf0a8b1457695355fb8ac404e7a79e3831015611e6a57611e6383612104565b9350611e76565b611e73836126d3565b93505b8663ffffffff168863ffffffff168502811515611e8f57fe5b049150700800000000000000000000000000000000821015611ebf57611eb482612809565b607f95509550611ee7565b611ec882612dc9565b9050611ee181607f0360ff16839060020a900482612e8c565b81955095505b5050505094509492505050565b6000611f0b82600154611d7390919063ffffffff16565b600181905550611f62826000808673ffffffffffffffffffffffffffffffffffffffff1673ffffffffffffffffffffffffffffffffffffffff16815260200190815260200160002054611d7390919063ffffffff16565b6000808573ffffffffffffffffffffffffffffffffffffffff1673ffffffffffffffffffffffffffffffffffffffff168152602001908152602001600020819055508273ffffffffffffffffffffffffffffffffffffffff167fcc16f5dbb4873280815c1ee09dbd06736cffcc184412cf7a71a0fdb75d397ca5836040518082815260200191505060405180910390a26001905092915050565b600061201382600154611d8c90919063ffffffff16565b60018190555061206a826000808673ffffffffffffffffffffffffffffffffffffffff1673ffffffffffffffffffffffffffffffffffffffff16815260200190815260200160002054611d8c90919063ffffffff16565b6000808573ffffffffffffffffffffffffffffffffffffffff1673ffffffffffffffffffffffffffffffffffffffff168152602001908152602001600020819055508273ffffffffffffffffffffffffffffffffffffffff167f0f6798a560793a54c3bcfe86a93cde1e73087d944c0ea20544137d4121396885836040518082815260200191505060405180910390a26001905092915050565b60008060008060008093506fd3094c70f034de4b96ff7d5b6f99fcd88610151561216e576f40000000000000000000000000000000840193506fd3094c70f034de4b96ff7d5b6f99fcd86f80000000000000000000000000000000870281151561216a57fe5b0495505b6fa45af1e1f40c333b3de1db4dd55f29a7861015156121cd576f20000000000000000000000000000000840193506fa45af1e1f40c333b3de1db4dd55f29a76f8000000000000000000000000000000087028115156121c957fe5b0495505b6f910b022db7ae67ce76b441c27035c6a18610151561222c576f10000000000000000000000000000000840193506f910b022db7ae67ce76b441c27035c6a16f80000000000000000000000000000000870281151561222857fe5b0495505b6f88415abbe9a76bead8d00cf112e4d4a88610151561228b576f08000000000000000000000000000000840193506f88415abbe9a76bead8d00cf112e4d4a86f80000000000000000000000000000000870281151561228757fe5b0495505b6f84102b00893f64c705e841d5d4064bd3861015156122ea576f04000000000000000000000000000000840193506f84102b00893f64c705e841d5d4064bd36f8000000000000000000000000000000087028115156122e657fe5b0495505b6f8204055aaef1c8bd5c3259f4822735a286101515612349576f02000000000000000000000000000000840193506f8204055aaef1c8bd5c3259f4822735a26f80000000000000000000000000000000870281151561234557fe5b0495505b6f810100ab00222d861931c15e39b44e99861015156123a8576f01000000000000000000000000000000840193506f810100ab00222d861931c15e39b44e996f8000000000000000000000000000000087028115156123a457fe5b0495505b6f808040155aabbbe9451521693554f73386101515612406576e800000000000000000000000000000840193506f808040155aabbbe9451521693554f7336f80000000000000000000000000000000870281151561240257fe5b0495505b6f80000000000000000000000000000000860392508291506f8000000000000000000000000000000083840281151561243b57fe5b0490507001000000000000000000000000000000008370010000000000000000000000000000000003830281151561246f57fe5b04840193506f8000000000000000000000000000000081830281151561249157fe5b049150700200000000000000000000000000000000836faaaaaaaaaaaaaaaaaaaaaaaaaaaaaaaa0383028115156124c457fe5b04840193506f800000000000000000000000000000008183028115156124e657fe5b049150700300000000000000000000000000000000836f9999999999999999999999999999999903830281151561251957fe5b04840193506f8000000000000000000000000000000081830281151561253b57fe5b049150700400000000000000000000000000000000836f9249249249249249249249249249249203830281151561256e57fe5b04840193506f8000000000000000000000000000000081830281151561259057fe5b049150700500000000000000000000000000000000836f8e38e38e38e38e38e38e38e38e38e38e0383028115156125c357fe5b04840193506f800000000000000000000000000000008183028115156125e557fe5b049150700600000000000000000000000000000000836f8ba2e8ba2e8ba2e8ba2e8ba2e8ba2e8b03830281151561261857fe5b04840193506f8000000000000000000000000000000081830281151561263a57fe5b049150700700000000000000000000000000000000836f89d89d89d89d89d89d89d89d89d89d8903830281151561266d57fe5b04840193506f8000000000000000000000000000000081830281151561268f57fe5b049150700800000000000000000000000000000000836f888888888888888888888888888888880383028115156126c257fe5b048401935083945050505050919050565b60008060008060009250700100000000000000000000000000000000851015156127435761271b6f800000000000000000000000000000008681151561271557fe5b046132b0565b91508160ff16859060020a900494506f800000000000000000000000000000008260ff160292505b6f800000000000000000000000000000008511156127d157607f90505b60008160ff1611156127d0576f8000000000000000000000000000000085860281151561278957fe5b049450700100000000000000000000000000000000851015156127c4576001859060020a900494506001810360ff1660019060020a02830192505b80600190039050612760565b5b6f05b9de1d10bf4103d647b0955897ba806f03f80fe03f80fe03f80fe03f80fe03f884028115156127fe57fe5b049350505050919050565b600080600080600092506f100000000000000000000000000000008581151561282e57fe5b0691508190506f8000000000000000000000000000000082820281151561285157fe5b0490506710e1b3be415a00008102830192506f8000000000000000000000000000000082820281151561288057fe5b0490506705a0913f6b1e00008102830192506f800000000000000000000000000000008282028115156128af57fe5b049050670168244fdac780008102830192506f800000000000000000000000000000008282028115156128de57fe5b049050664807432bc180008102830192506f8000000000000000000000000000000082820281151561290c57fe5b049050660c0135dca040008102830192506f8000000000000000000000000000000082820281151561293a57fe5b0490506601b707b1cdc0008102830192506f8000000000000000000000000000000082820281151561296857fe5b0490506536e0f639b8008102830192506f8000000000000000000000000000000082820281151561299557fe5b049050650618fee9f8008102830192506f800000000000000000000000000000008282028115156129c257fe5b049050649c197dcc008102830192506f800000000000000000000000000000008282028115156129ee57fe5b049050640e30dce4008102830192506f80000000000000000000000000000000828202811515612a1a57fe5b04905064012ebd13008102830192506f80000000000000000000000000000000828202811515612a4657fe5b0490506317499f008102830192506f80000000000000000000000000000000828202811515612a7157fe5b0490506301a9d4808102830192506f80000000000000000000000000000000828202811515612a9c57fe5b049050621c63808102830192506f80000000000000000000000000000000828202811515612ac657fe5b0490506201c6388102830192506f80000000000000000000000000000000828202811515612af057fe5b049050611ab88102830192506f80000000000000000000000000000000828202811515612b1957fe5b04905061017c8102830192506f80000000000000000000000000000000828202811515612b4257fe5b04905060148102830192506f80000000000000000000000000000000828202811515612b6a57fe5b04905060018102830192506f80000000000000000000000000000000826721c3677c82b4000085811515612b9a57fe5b040101925060006f100000000000000000000000000000008616141515612bee5770018ebef9eac820ae8682b9793ac6d1e7767001c3d6a24ed82218787d624d3e5eba95f98402811515612bea57fe5b0492505b60006f200000000000000000000000000000008616141515612c3d577001368b2fc6f9609fe7aceb46aa619baed470018ebef9eac820ae8682b9793ac6d1e7788402811515612c3957fe5b0492505b60006f400000000000000000000000000000008616141515612c8b576fbc5ab1b16779be3575bd8f0520a9f21f7001368b2fc6f9609fe7aceb46aa619baed58402811515612c8757fe5b0492505b60006f800000000000000000000000000000008616141515612cd8576f454aaa8efe072e7f6ddbab84b40a55c96fbc5ab1b16779be3575bd8f0520a9f21e8402811515612cd457fe5b0492505b60007001000000000000000000000000000000008616141515612d26576f0960aadc109e7a3bf4578099615711ea6f454aaa8efe072e7f6ddbab84b40a55c58402811515612d2257fe5b0492505b60007002000000000000000000000000000000008616141515612d73576e2bf84208204f5977f9a8cf01fdce3d6f0960aadc109e7a3bf4578099615711d78402811515612d6f57fe5b0492505b60007004000000000000000000000000000000008616141515612dbe576d03c6ab775dd0b95b4cbee7e65d116e2bf84208204f5977f9a8cf01fdc3078402811515612dba57fe5b0492505b829350505050919050565b60008060008060209250607f91505b8160ff166001840160ff161015612e2a57600282840160ff16811515612dfa57fe5b0490508460048260ff16608081101515612e1057fe5b0154101515612e2157809250612e25565b8091505b612dd8565b8460048360ff16608081101515612e3d57fe5b0154101515612e4e57819350612e84565b8460048460ff16608081101515612e6157fe5b0154101515612e7257829350612e84565b60001515612e7f57600080fd5b600093505b505050919050565b6000806000849150600090508360ff168583029060020a900491506f03442c4e6074a82f1797f72ac00000008202810190508360ff168583029060020a900491506f0116b96f757c380fb287fd0e400000008202810190508360ff168583029060020a900491506e45ae5bdd5f0e03eca1ff43900000008202810190508360ff168583029060020a900491506e0defabf91302cd95b9ffda500000008202810190508360ff168583029060020a900491506e02529ca9832b22439efff9b80000008202810190508360ff168583029060020a900491506d54f1cf12bd04e516b6da880000008202810190508360ff168583029060020a900491506d0a9e39e257a09ca2d6db510000008202810190508360ff168583029060020a900491506d012e066e7b839fa050c3090000008202810190508360ff168583029060020a900491506c1e33d7d926c329a1ad1a8000008202810190508360ff168583029060020a900491506c02bee513bdb4a6b19b5f8000008202810190508360ff168583029060020a900491506b3a9316fa79b88eccf2a000008202810190508360ff168583029060020a900491506b048177ebe1fa8123752000008202810190508360ff168583029060020a900491506a5263fe90242dcbacf000008202810190508360ff168583029060020a900491506a057e22099c030d941000008202810190508360ff168583029060020a900491506957e22099c030d94100008202810190508360ff168583029060020a9004915069052b6b545699763100008202810190508360ff168583029060020a90049150684985f67696bf7480008202810190508360ff168583029060020a900491506803dea12ea99e4980008202810190508360ff168583029060020a900491506731880f2214b6e0008202810190508360ff168583029060020a9004915067025bcff56eb360008202810190508360ff168583029060020a90049150661b722e10ab10008202810190508360ff168583029060020a900491506601317c700770008202810190508360ff168583029060020a90049150650cba84aafa008202810190508360ff168583029060020a900491506482573a0a008202810190508360ff168583029060020a900491506405035ad9008202810190508360ff168583029060020a90049150632f881b008202810190508360ff168583029060020a900491506301b293408202810190508360ff168583029060020a90049150620efc408202810190508360ff168583029060020a90049150617fe08202810190508360ff168583029060020a900491506104208202810190508360ff168583029060020a9004915060218202810190508360ff168583029060020a9004915060018202810190508360ff1660019060020a02856f0688589cc0e9505e2f2fee5580000000838115156132a357fe5b0401019250505092915050565b60008060008091506101008410156132e7575b60018411156132e2576001849060020a900493506001820191506132c3565b613332565b608090505b60008160ff161115613331578060ff1660019060020a028410151561331e578060ff16849060020a9004935080821791505b60018160ff169060020a900490506132ec565b5b81925050509190505600a165627a7a7230582099b8f543f3d66b85afe6580ccc7d813077e01eecf4e0cb37cdeb966787f1084f0029",
  "source": "pragma solidity ^0.4.23;\n\nimport \"zeppelin-solidity/contracts/token/ERC20/StandardToken.sol\";\nimport \"zeppelin-solidity/contracts/math/SafeMath.sol\";\nimport \"bancor-contracts/solidity/contracts/converter/BancorFormula.sol\";\n\ncontract BondedToken is StandardToken, BancorFormula {\n    using SafeMath for uint256;\n\n    string public name;\n    string public symbol;\n    uint8 public decimals;\n\n    uint32 public reserveRatio;  // represented in ppm, 1-1000000\n    uint256 public virtualSupply;\n    uint256 public virtualBalance;\n\n    uint256 public poolBalance;\n\n    event Mint(address indexed to, uint256 amount);\n    event Burn(address indexed burner, uint256 amount);\n    event Buy(address indexed to, uint256 poolBalance, uint tokenSupply, uint256 amountTokens, uint256 totalCostEth);\n    event Sell(address indexed from, uint256 poolBalance, uint tokenSupply, uint256 amountTokens, uint256 returnedEth);\n\n    constructor (\n        string _name,\n        string _symbol,\n        uint8 _decimals,\n        uint32 _reserveRatio,\n        uint256 _virtualSupply,\n        uint256 _virtualBalance) public {\n            \n        name = _name;\n        symbol = _symbol;\n        decimals = _decimals;\n\n        reserveRatio = _reserveRatio;\n        virtualSupply = _virtualSupply;\n        virtualBalance = _virtualBalance;\n    }\n\n    function() payable {}\n\n\n    function getBuy(uint256 totalSupply, uint256 poolBalance, uint256 buyValue) public constant returns(uint256) {\n        return calculatePurchaseReturn(\n            safeAdd(totalSupply, virtualSupply),\n            safeAdd(poolBalance, virtualBalance),\n            reserveRatio,\n            buyValue);\n    }\n\n\n    function getSell(uint256 totalSupply, uint256 poolBalance, uint256 sellAmount) public constant returns(uint256) {\n        return calculateSaleReturn(\n            safeAdd(totalSupply, virtualSupply),\n            safeAdd(poolBalance, virtualBalance),\n            reserveRatio,\n            sellAmount);\n    }\n\n    /**\n    * @dev buy Buy tokens for Eth\n    * @param sender The recepient of bought tokens\n    */\n    function buy(address sender) public payable returns(bool) {\n        require(msg.value > 0);\n        uint256 tokens = getBuy(totalSupply_, poolBalance, msg.value);\n        require(tokens > 0);\n        require(_mint(sender, tokens));\n\n        poolBalance = poolBalance.add(msg.value);\n        this.transfer(msg.value);\n        emit Buy(sender, poolBalance, totalSupply_, tokens, msg.value);\n        return true;\n    }\n\n    /**\n    * @dev sell Sell tokens for Eth\n    * @param sellAmount The amount of tokens to sell\n    */\n    function sell(uint256 sellAmount) public returns(bool) {\n        require(sellAmount > 0);\n        require(balanceOf(msg.sender) >= sellAmount);\n\n        uint256 saleReturn = getSell(totalSupply_, poolBalance, sellAmount);\n\n        require(saleReturn > 0);\n        require(saleReturn <= poolBalance);\n        require(_burn(msg.sender, sellAmount));\n        poolBalance = poolBalance.sub(saleReturn);\n\n        msg.sender.transfer(saleReturn);\n\n        emit Sell(msg.sender, poolBalance, totalSupply_, sellAmount, saleReturn);\n        return true;\n    }\n\n\n    /// @dev                Mint new tokens with ether\n    /// @param numTokens    The number of tokens you want to mint\n    function _mint(address minter, uint256 numTokens) internal returns(bool){\n        totalSupply_ = totalSupply_.add(numTokens);\n        balances[minter] = balances[minter].add(numTokens);\n        emit Mint(minter, numTokens);\n        return true;\n    }\n\n    /// @dev                Burn tokens to receive ether\n    /// @param burner         The number of tokens that you want to burn\n    /// @param numTokens    The number of tokens that you want to burn\n    function _burn(address burner, uint256 numTokens) internal returns(bool) {\n        totalSupply_ = totalSupply_.sub(numTokens);\n        balances[burner] = balances[burner].sub(numTokens);\n        emit Burn(burner, numTokens);\n        return true;\n    }\n\n}",
  "sourcePath": "/Users/billy/sol/bonding-curve-generic/contracts/BondedToken.sol",
  "compiler": {
    "name": "solc",
    "version": "0.4.24+commit.e67f0147.Emscripten.clang"
  },
  "schemaVersion": "2.0.1",
  "updatedAt": "2018-12-03T14:27:16.246Z"
}